:0300000002020BEE
:0C020B00787FE4F6D8FD758123020252D2
:1005240053756E004D6F6E00547565005765640019
:10053400546875004672690053617400001F1C1FE3
:090544001E1F1E1F1F1E1F1E1F9B
:1004C800020B07E8010803010E06010900010F00ED
:1004D80001102A010D000111000E1205240528053E
:0E04E8002C053005340538053C010A00C10022
:0D04F700C2A18F807F017E00120504D2A2F9
:10050400E4FDFCC3ED9FEC9E5015E4FBFA0BBB002D
:0F051400010AEB646E4A70F50DBD00010C80E426
:0105230022B5
:10054D00AB07AA06EB5403700AFC7D641202C2EDE0
:10055D004C700FAE02AF037C017D901202C2ED4CC8
:06056D007002D322C3223C
:0805D200050EAD08AF0CAE0BE5
:1005DA00A905B9020812054D50037F1D22E99005AD
:0405EA004093FF2219
:06017D00AA058F828E83AB
:10018300EA64016003BA020C740C2AFAE582158250
:1001930070021583EA2401FFE433FE7C007D031221
:1001A30002B07D051202C2AC06AD07EA75F002A4E7
:1001B3007A002BFFEA35F0CF2DCF3CCF2582FDEF20
:1001C3003583FCE582AE837802CEC313CE13D8F910
:1001D3002DFBEC3EFA7C007D64AF82AE831202C23B
:1001E300C3EB9FFBEA9EFAAE83AF827C017D901244
:1001F30002C2EF2BFFEE3ACF2401CF3400FE7C0086
:070203007D071202C2AF05E6
:01020A0022D1
:0E063B00AB0EAD08AF0CAE0B12017D8F092285
:08000300C2A01204F7C2A22200
:0F05EE007E00CFCDCFCECCCE1202C2EF2430FF95
:0805FD00D2A01204F7C2A222F1
:100605007F381200037F0C1200037F061200037F60
:0406150001020003DB
:10061900A907ED7005E924808003E924C0FF1200D1
:020629000322AA
:10038A00152315231523A823A60308A60208A601E8
:10039A001523A823A6051523A823A607A823E6FF45
:1003AA0008E6FD120619A8230808860308E6FA08D3
:1003BA00E6F9120297601BA82308088603080806B4
:1003CA00E618860270010614F9120297FF1205FD5B
:0903DA0080D4E5232405F523225B
:100596008B21120619E52175F00A842430FF120515
:0F05A600FDE52175F00A84E5F02430FF0205FD24
:100484008A218B22120619AE21AF227C037DE81249
:1004940005F6AE21AF227C037DE81202C27F64120E
:1004A40005EEAE21AF227C007D641202C27F0A12E7
:1004B40005EEAE21AF227C007D0A1202C2ED24308B
:0404C400FF0205FD31
:10031700AB0CAA0BE4FDFF1204847F2D1205FDAB85
:1003270008E4FD7F051205967F2D1205FDAB0EE44F
:10033700FD7F081205967F201205FDE50925E024BB
:1003470012F8E6FE08E6AA06F97BFF7D007F0B128E
:10035700038AAB0F7D017F041205967F3A1205FDD4
:10036700AB107D017F071205967F3A1205FDAB0D95
:100377007D017F0A1205967D017F0C1206197F20E9
:030387000205FD6F
:1003E300050DE50DD3943B404DE4F50D0510E510E7
:1003F300D3943B4041E4F510050FE50FD394174028
:1004030035E4F50F1205D2E50ED39F4026750E0194
:100413000508E508D3940C401A750801050CE50C92
:100423007002050BD3940FE50B94274006750B0759
:07043300750C6C12063B2260
:10043A00E51170057F0C0200037F0F120003E5111E
:10044A0024FE601614601914601C14601F146022C4
:10045A0024057025E4FD7F03801CE4FD7F068016D9
:10046A00E4FD7F0980107D017F05800A7D017F08F8
:0A047A0080047D017F0B1206192299
:10000E0020B0197F0A7E0012050420B00F0511E5FD
:10001E0011D394064003E4F51130B0FDE5117003E1
:10002E0002017C30B1030200D87F0A7E0012050463
:10003E0030B1030200D8E51124FE60291460421489
:10004E00604D1460581460632405706B050CE50C4C
:10005E007002050BD3940FE50B9427405A750B07CE
:10006E00750C6C80520508E508D3940C4003750896
:10007E00011205D4E50ED39F403D1205D48F0E809C
:10008E00361205D2E50ED39F402D750E0180280540
:10009E000FE50FD39417401FE4F50F801A0510E5F6
:1000AE0010D3943B4011E4F510800C050DE50DD3F3
:1000BE00943B4003E4F50DE511D39403500312066F
:1000CE003B12031712043A30B1FD30B20302017C29
:1000DE007F0A7E0012050430B20302017CE5112472
:1000EE00FE602C14604014604D146057146061243F
:1000FE00057068E50CB46C0DE50BB40708750B279D
:10010E00750C0F8056E50C150C7050150B804CE5D8
:10011E0008B4010575080C800215081205D4E50E09
:10012E00D39F40378005E50EB401071205D48F0E1C
:10013E008029150E8025E50F7005750F17801C158B
:10014E000F8018E510700575103B800F1510800B91
:10015E00E50D7005750D3B8002150DE511D3940369
:0F016E00500312063B12031712043A30B2FD225F
:10062B00438901758C4CE4F58AD2AFD2A9D28C22C6
:03000B000205B536
:1005B500C0E0C0D0758C4C758A00050AE50AC39465
:0D05C500144005750A00D200D0D0D0E032FD
:1005730012060512063B12031712062B12000E1267
:10058300043A3000F7C200E51170F11203E31203DD
:030593001780E9E5
:10021700020573E493A3F8E493A34003F68001F285
:1002270008DFF48029E493A3F85407240CC8C333E8
:10023700C4540F4420C8834004F456800146F6DFB7
:10024700E4800B01020408102040809004C8E47E7B
:10025700019360BCA3FF543F30E509541FFEE493AC
:10026700A360010ECF54C025E060A840B8E493A373
:10027700FAE493A3F8E493A3C8C582C8CAC583CA9E
:10028700F0A3C8C582C8CAC583CADFE9DEE780BE56
:0104F6000005
:10029700BB010689828A83E0225002E722BBFE0265
:0902A700E32289828A83E4932298
:1002B000EF8DF0A4A8F0CF8CF0A428CE8DF0A42E62
:0202C000FE221C
:1002C200BC000BBE0029EF8DF084FFADF022E4CC20
:1002D200F875F008EF2FFFEE33FEEC33FCEE9DECE9
:1002E200984005FCEE9DFE0FD5F0E9E4CEFD22ED2F
:1002F200F8F5F0EE8420D21CFEADF075F008EF2F79
:10030200FFED33FD4007985006D5F0F222C398FD69
:050312000FD5F0EA2206
:00000001FF
